:020000040800F2
:1000000000400020391000087F100008811000080F
:100010008310000885100008871000080000000009
:10002000000000000000000000000000891000082F
:100030008B100008000000008D1000088F100008D1
:100040009110000893100008951000089710000800
:10005000991000089B1000089D1000089F100008D0
:10006000A1100008A3100008A5100008A7100008A0
:10007000A9100008AB100008AD100008AF10000870
:10008000B1100008B3100008B5100008B710000840
:10009000B9100008BB100008BD100008BF10000810
:1000A000C1100008C3100008C5100008C7100008E0
:1000B000210F0008CB100008CD100008CF10000859
:1000C000D1100008D3100008D5100008D710000880
:1000D000D9100008DB100008C1060008DF10000876
:1000E000E1100008E3100008E5100008E710000820
:1000F000E9100008EB100008ED100008EF100008F0
:10010000000000000000000000000000F1100008E6
:10011000F3100008F5100008F7100008F9100008A7
:10012000FB100008FD100008FF1000080111000876
:100130000311000805110008000000000000000085
:1001400007110008091100080B1100080000000049
:10015000000000000000000000000000000000009F
:1001600000000000000000000D1100080F11000841
:100170001111000800000000000000000000000055
:10018000000000001311000810B5054C237833B9A6
:10019000044B13B10448AFF300800123237010BD5A
:1001A0009800002000000000B4290008084B10B59A
:1001B0001BB108490848AFF300800848036803B939
:1001C00010BD074B002BFBD0BDE81040184700BF07
:1001D000000000009C000020B429000898000020C6
:1001E00000000000154B002B08BF134B9D46A3F5E4
:1001F000803A00218B460F461348144A121A01F028
:1002000021F80F4B002B00D098470E4B002B00D04D
:1002100098470020002104000D000D48002802D05E
:100220000C48AFF3008000F0E7FF2000290000F049
:1002300037FD00F0CDFF00BF0000080000400020A7
:10024000000000000000000098000020D401002001
:100250000000000000000000042A30B41FD802EBA8
:1002600042025200056B1F24944025EA040401FA5F
:1002700002F222430263092922D801394269446902
:1002800001EB410138228A4024EA020242614269BC
:10029000033103FA01F11143416130BC7047092A6F
:1002A0001ED8053A02EB42025200456B1F249440CF
:1002B00025EA040401FA02F2224309294263DCD947
:1002C0000A398269846901EB410107228A4024EAE4
:1002D0000202826182698B401343836130BC7047A4
:1002E0000E2A0DD80A3A02EB42025200856B1F24F7
:1002F000944025EA040401FA02F222438263BAE739
:100300000F3A02EB42025200C56B1F24944025EACB
:10031000040401FA02F22243C263ACE7836843F0AB
:1003200004038360704700BF006C80B2704700BF59
:1003300003680B4214BF012000207047F0B5A14AAA
:10034000536803F00C03042B02D0082B00F0F58057
:100350009D4A026000259B4CDFF874C26368DFF899
:1003600074E2C3F303131CF80370FFB222FA07F31D
:1003700043606168C1F302211CF8011023FA01F106
:1003800081606668C6F3C2261CF80660F6B2F340C8
:10039000C360E46AC4F304143EF81440A4B214F039
:1003A000100F1CBFB5FBF4F40461864C08BF02615A
:1003B000E46AC4F344243EF81440A4B214F0100FCD
:1003C0001CBFB5FBF4F444617E4C08BF4261246B52
:1003D000E4065CBF7C4C84617A4C48BF8261246B2C
:1003E000A4065CBF784CC461764C48BFC261D4F8A7
:1003F00030E01EF4807F49D0954200F0B88003625F
:10040000246B43626F4C256BAD0711D0236B03F057
:100410000303012B00F0B680236B03F00303022BD0
:1004200000F0BB80236B03F00303032B01D1664B69
:100430008362644B1C6B14F4403F31D1C162614B49
:100440001C6B14F4402F44D101635E4B1C6B14F4FD
:10045000401F57D141635B4B1C6B14F4400F6AD0B3
:10046000196B01F44001B1F5800F00F091801A6B17
:1004700002F44002B2F5000F00F09F801B6B03F402
:100480004003B3F5400F00F08580F0BD0362246B9C
:10049000A405B6D59542B4D1B742B2D155006FE0AC
:1004A0001C6B04F44034B4F5803F5AD01C6B04F448
:1004B0004034B4F5003F78D01B6B03F44033B3F500
:1004C000403F04BF404BC3623E4B1C6B14F4402FB3
:1004D000BAD01C6B04F44024B4F5802F45D01C6BBB
:1004E00004F44024B4F5002F5BD01B6B03F44023CD
:1004F000B3F5402F04BF344B0363324B1C6B14F431
:10050000401FA7D01C6B04F44014B4F5801F2AD000
:100510001C6B04F44014B4F5001F4AD01B6B03F4A9
:100520004013B3F5401F04BF274B4363254B1C6B9F
:1005300014F4400F94D18163F0BD55685368C5F33E
:100540008345DB0305F102011ED5D36A1E4D03F07E
:100550000F030133B5FBF3F301FB03F505602A46F6
:10056000F9E6C2626BE7426375E702636DE7B74283
:100570007FF445AF55000562246BA6057FF541AFBA
:1005800045623FE7826254E7104B03FB01F5E5E764
:100590008263F0BD0C4B8363F0BD4FF40043836274
:1005A00047E74FF4004303634FE74FF40043C36250
:1005B00045E74FF4004343634DE74FF40043836343
:1005C000F0BD00BF0010024000127A0000093D009B
:1005D0001C000020000000200173704703891942AD
:1005E00014BF012000207047C1F308010185704746
:1005F00010B4CCB2C1F307210123022903FA04F39A
:100600000ED0032908BF08302AB9026810BC22EABC
:10061000030303607047026810BC13430360704714
:100620000430F1E7C3690B4214BF0120002070477A
:10063000C1F3072210B40123CCB2012A03FA04F358
:1006400013D0022A0CBF426882681340C2694BB1C2
:100650000123090C03FA01F1114214BF18460020CE
:1006600010BC7047184610BC704702681340EDE795
:10067000014608B50448FFF7B7FF80210248FFF79D
:10068000D1FF0028F9D008BD0044004070B51E1EFF
:1006900013DD1446951903E0FFF7EAFFAC420CD0D6
:1006A00014F8010B0A28F7D10D20FFF7E1FF14F829
:1006B000010CFFF7DDFFAC42F2D1304670BD00BF48
:1006C00038B50F4C0F492046FFF7B2FF88B10E48EE
:1006D0000E4D03780E49DBB25A1CD2B20270A28CC6
:1006E000D2B2EA540B78FF2B04D00B780133DBB283
:1006F0000B7038BD074A13780133DBB2137038BD75
:100700000044004005010500B4000020B8000020AE
:10071000B9010020B801002070B5494E494C33683A
:1007200090B005460021986800F01AFE3368002159
:10073000586800F015FE444A536943F4003353618E
:10074000D1694FF0904341F40031D1611A6A22F42B
:1007500070621A621A6A42F4E0621A621A6A22F439
:1007600070421A621A6A42F4E0421A629A6822F0EF
:10077000F0029A609A6842F050029A609A8822F0D9
:100780000C021204120C9A809A8892B29A801A680B
:1007900022F0F0021A601A6842F0A0021A60DA68C9
:1007A00022F0F002DA60DA6842F05002DA60236880
:1007B00023F001032360636823F44053636063689C
:1007C0006360236823F4B05323F00C032360236891
:1007D000236023682360236843F00C032360A3682D
:1007E00023F44073A360A368A36001A8FFF7A6FDEC
:1007F00023680C9A190448BF5200B2FBF5F305FBBD
:100800001322B2EB550F0F4A126828BF01331204AE
:1008100005D54FF6F0721A40C3F34203134309485B
:100820000A499BB28381036843F0010303600122FC
:10083000FFF7DEFE064B40225A6010B070BD00BFCD
:100840008C0000200044004000100240050105001B
:1008500000E100E010B50F4A938A23F040031B0427
:100860001B0C0446938202210B48FFF7B7FE0128B8
:10087000F9D121460848FFF7AFFE02210648FFF7ED
:10088000ADFE0128F9D1034A938A9BB243F040039D
:10089000938210BD0004004800380040F8B54FF0C6
:1008A00090440646A38A23F480731B041B0CA38286
:1008B0000020FFF7CFFF1020FFF7CCFFB020FFF79D
:1008C000C9FFA38A9BB243F48073A382751E06F10D
:1008D0007F0415F8010FFFF7BDFFAC42F9D14FF0CF
:1008E00090450020AB8A23F480731B041B0CAB8261
:1008F000FFF7B0FF1020FFF7ADFFB120FFF7AAFF11
:10090000AB8A9BB243F48073AB8206F1FF0514F807
:10091000010FFFF79FFFA542F9D14FF0904400204F
:10092000A38A23F480731B041B0CA382FFF792FF9E
:100930001020FFF78FFFB220FFF78CFFA38A9BB236
:1009400043F48073A38206F27F1415F8010FFFF7BA
:1009500081FFA542F9D14FF090470020BB8A23F4D4
:1009600080731B041B0CBB82FFF774FF1020FFF782
:1009700071FFB320FFF76EFFBB8A9BB243F4807315
:1009800006F2FF15BB8214F8010FFFF763FFAC42BC
:10099000F9D1F8BD08B54FF09041264A8B8A23F46F
:1009A00080731B041B0C8B82938A9BB243F0400321
:1009B0009382938A23F480431B041B0C938241F29D
:1009C000482300BF013BFCD11A491B4B8A8A92B2D3
:1009D00042F480428A8200BF013BFCD14FF090423A
:1009E000AE20938A23F480731B041B0C9382FFF7C1
:1009F00031FFA220FFF72EFFA020FFF72BFFC8201A
:100A0000FFF728FF2220FFF725FF2F20FFF722FF07
:100A10004020FFF71FFFAF20FFF71CFF8120FFF7EB
:100A200019FF1720FFF716FFA620BDE80840FFF7C3
:100A300011BF00BF0004004870F3050010B46749FF
:100A4000674B4869674A40F4C0204861C86940F470
:100A50008040C861596A21F470015962596A41F4B1
:100A6000A0015962596A21F070415962596A41F0F6
:100A7000A0415962996821F04C419960996841F010
:100A800088419960998845F6FF700140998099885E
:100A900089B29980196821F04C411960196841F0B8
:100AA00008411960D96821F04C41D960D968D960F2
:100AB000996821F030219960996841F0102199607E
:100AC000998821F4804121F040010904090C9980A2
:100AD000998889B29980196821F0302119601968C4
:100AE00041F010211960D96821F03021D960D9680E
:100AF000D9604FF0904107208C68A40CA4048C604E
:100B00008C6844F480348C608C8804F47E448C803F
:100B10008C88A4B28C800C68A40CA4040C600C68B3
:100B200044F480340C600C6824F0F0040C600C6811
:100B300044F0A0040C60CC68A40CA404CC60CC6885
:100B4000CC60998A89B241F040019982138803F4FC
:100B50004153138013889BB2138013889BB243F4D4
:100B60008273138013889BB243F0020313801388AF
:100B70009BB243F00103138013889BB243F40073CC
:100B8000138013889BB243F00803138013889BB231
:100B90001380938823F470631B041B0C9380938849
:100BA0009BB243F4E0639380938B23F400631B04B4
:100BB0001B0C93831082938823F480531B041B0C1B
:100BC000938093889BB243F48053938013889BB2A5
:100BD00043F04003138010BCFFF7DCBE001002405E
:100BE00000040048003800401B21014800F090BB81
:100BF0007826000800B5072888BF083883B088BF6A
:100C0000C0B201F12801009100F11E038CBF012246
:100C100016221B21024800F07BFB03B05DF804FBA9
:100C20009C2600082DE9F843044603EBC213204636
:100C3000174603F105080E4600F068FC4FF0000966
:100C40004845164D22D914F80900203800EB8000E1
:100C500008F10F0328443344A8F1050100290A468E
:100C6000B8BF01F17F02B7EBE21F11D0013141455E
:100C700000F1010003F10103F0D1204600F046FC31
:100C800009F10109484508F10508DCD8BDE8F883F9
:100C90000029A4BF02781A70E8E700BF0C270008FB
:100CA00000B51B48ADF5057DFFF736FD00F036F8C1
:100CB00000F0A8F800F04AF900F008F900F026F971
:100CC000FFF7BCFE07210020FFF794FFFFF78CFF22
:100CD00004A84FF40072002100F0B4FA04A8FFF752
:100CE000DDFD00F079F901A900F090F901A90948AA
:100CF00000F00EFB01231A4604A901A8FFF792FF9A
:100D000004A8FFF7CBFD044B013BFDD1E9E700BF91
:100D100000770100AC26000800093D0010B43648F9
:100D2000364A4169364B41F400314161416941F431
:100D30008021416144694FF0904144F400244461B2
:100D4000886820F440208860886840F4002088602B
:100D5000888820F400700004000C8880888880B2A5
:100D60008880086820F440200860086840F48020EB
:100D70000860888A80B240F400708882916821F40B
:100D800040419160916841F400419160918821F067
:100D900080010904090C9180918889B291801168C1
:100DA00021F440411160116841F480411160918A41
:100DB00089B241F0800191829A6822F440729A606F
:100DC0009A6842F400729A609A8822F01002120423
:100DD000120C9A809A8892B29A801A6822F4407211
:100DE0001A601A6842F480721A609A8A92B242F0CB
:100DF00010029A8210BC70470010024000080048A0
:100E00000004004810B42E492E4A4C692E4B4FF076
:100E1000904044F400344C61046824F4407404604D
:100E200004680460C46824F44074C460C46844F472
:100E30008074C460486940F400204861106820F064
:100E40000300106010681060D06820F00300D060CC
:100E5000D06840F00100D060106820F00C001060F5
:100E600010681060D06820F00C00D060D06840F0AE
:100E70000400D0604A6942F480224A611A6822F470
:100E800040621A601A681A60DA6822F44062DA6016
:100E9000DA6842F48062DA604A6942F480224A6188
:100EA0001A6822F003021A601A681A60DA6822F0DF
:100EB0000302DA60DA6842F00102DA6010BC7047BF
:100EC00000100240000800480004004870B40D4CB7
:100ED0000D49E2694FF0804342F00102002043F6E1
:100EE000F9462825E2611880DE621D85DA684FF038
:100EF000805442F00102DA6081F81C030C6070BC7F
:100F0000704700BF0010024000E100E04FF0804356
:100F10001A88D2074CBF002201221A80704700BFF6
:100F200010B40848084C0368226801334FF0804130
:100F30000132226003600B6923F001030B6110BCD6
:100F4000704700BFBC010020C001002010B4204B3E
:100F5000204958694FF0904240F4003058611068C1
:100F600020F00300106010681060106820F00C0082
:100F7000106010681060DA6A22F4F872DA62DA6AD5
:100F800042F49872DA6258694FF0A04240F0805003
:100F9000002458619460D3681940D160136B23F02A
:100FA0000F031363936843F080539360936843F097
:100FB00000439360916800294FF0A043FADA9A68E1
:100FC00042F001029A601A68D207FCD510BC704743
:100FD0000010024007C0FFFD012208B54FF0A040FD
:100FE00011460023FFF738F94FF0A040FFF796F9BC
:100FF00004214FF0A040FFF79BF90028F8D04FF0F4
:10100000A040FFF791F900B208BD00BF084A10B434
:1010100082FB0032C417C4EB222240F2DA4303FB06
:101020001203DB00084610BC024900F04BBA00BFB7
:10103000B739C4340C2900080649074A074B9A42BD
:10104000BEBF51F8040B42F8040BF8E70448804790
:1010500004480047C0290008000000209800002034
:101060001D110008E50100082A492B4A002301E070
:1010700041F8043B9142FBD3FFF712FEFEE7FEE787
:10108000FEE7FEE7FEE7FEE7FEE7FEE7FEE7FEE738
:10109000FEE7FEE7FEE7FEE7FEE7FEE7FEE7FEE728
:1010A000FEE7FEE7FEE7FEE7FEE7FEE7FEE7FEE718
:1010B000FEE7FEE7FEE7FEE7FEE7FEE7FEE7FEE708
:1010C000FEE7FEE7FEE7FEE7FEE7FEE7FEE7FEE7F8
:1010D000FEE7FEE7FEE7FEE7FEE7FEE7FEE7FEE7E8
:1010E000FEE7FEE7FEE7FEE7FEE7FEE7FEE7FEE7D8
:1010F000FEE7FEE7FEE7FEE7FEE7FEE7FEE7FEE7C8
:10110000FEE7FEE7FEE7FEE7FEE7FEE7FEE7FEE7B7
:10111000FEE7FEE798000020D401002010B4274B22
:10112000274A18682749284C40F001001860586881
:1011300002405A601A6822F0847222F480321A60E7
:101140001A6822F480221A605A6822F4FE025A6059
:10115000DA6A22F00F02DA621A6B002011401222C2
:101160001963986022605A685A605A685A605A68CF
:1011700042F480625A605A6822F47C125A605A68BB
:1011800042F460125A601A6842F080721A6019685C
:101190000A4A8901FBD5536823F00303536053685F
:1011A00043F002035360536803F00C03082BFAD199
:1011B000064B4FF000629A6010BC7047001002406E
:1011C0000CC07FF8CCFC00FF0020024000ED00E0E6
:1011D00008B5074B044613B10021AFF30080054B5F
:1011E0001868836A03B19847204601F037FA00BFB8
:1011F000000000001C29000870B50E4B0E4CE41ACC
:10120000A41000251E46A54204D056F82530984764
:101210000135F8E701F024FA084C094BE41AA41050
:1012200000251E46A54204D056F8253098470135C2
:10123000F8E770BD9000002090000020940000208E
:101240009000002002440346934202D003F8011BA1
:10125000FAE7704770B5CD1C25F0030508350C2D55
:1012600038BF0C25002D064601DBA94202D90C230C
:10127000336046E000F0F8FB234B1C681A46214619
:10128000A1B10B685B1B0ED40B2B03D90B60CC18E0
:10129000CD501EE08C420DBF63684B6863601360E5
:1012A00018BF0C4615E00C464968E9E7174C23685F
:1012B0001BB9304600F044F820602946304600F063
:1012C0003FF8431C18D0C41C24F00304A0420DD1E5
:1012D0002560304600F0C9FB04F10B00231D20F00F
:1012E0000700C31A0ED05A42E25070BD211A304690
:1012F00000F026F80130EBD10C233360304600F0CB
:10130000B4FB002070BD00BFC8010020C401002054
:101310000FB40A4B13B51C6824B1A36913B9204656
:1013200000F0B0FA05AB049AA1680193204600F0E2
:1013300061FD02B0BDE8104004B070478C00002091
:1013400038B5064C002305460846236001F078F9BD
:10135000431C02D1236803B12B6038BDD0010020AB
:1013600000294FF480630CBF0222002200F000B875
:101370002DE9F7431D464F4B1E6804460F46904625
:1013800026B1B36913B9304600F07CFA4A4B9C424F
:1013900001D1746808E0494B9C4201D1B46803E074
:1013A000474B9C4208BFF468B8F1020F04D0B8F173
:1013B000010F79D8002D77DB2146304600F0F8F98F
:1013C000616B41B104F14403994202D0304600F010
:1013D0004DFB002363630023A3616360A3891B06A5
:1013E00003D52169304600F041FBA38923F44A6309
:1013F00023F00303B8F1020FA3811ED001AB6A46AC
:101400002146304600F0C8FAA3891843A0810DB9DF
:10141000009D00E02FBB284600F01EFB0746D0B918
:10142000DDF80090A94502D14FF0FF3006E04846B4
:1014300000F012FB074678B9F6E70020A38943F0D5
:101440000203A3810023A36004F147032360236107
:10145000012363612AE0A946A38943F08003A381A5
:101460004D46B36913B9304600F00CFAB8F1010FDC
:1014700008BFA389276004BF43F00103A381A389A8
:10148000276103F0080080B2656158B113F00103D1
:101490004FF000001DBF6D42A060A561A56008BFB0
:1014A000184603E0A06001E04FF0FF3003B0BDE854
:1014B000F08300BF8C00002020290008402900088C
:1014C000602900080EB400B59CB04FF402711DAB4A
:1014D000ADF81410029006906FF000410A48049194
:1014E00007914FF6FF7153F8042BADF81610006802
:1014F000019302A900F062FB029B00221A701CB04B
:101500005DF804EB03B070478C000020034613F82D
:10151000012B002AFBD1181A01387047F8B50F4685
:101520001446064618B183690BB900F0ABF9224B9B
:101530009C4201D1746808E0204B9C4201D1B46800
:1015400003E01F4B9C4208BFF468A369A360A38912
:101550001A0709D523693BB123682069181A636902
:101560009842FDB20FDB08E02146304600F02AF831
:101570000028F1D04FF0FF30F8BD2146304600F092
:1015800017F90028F6D1A368013BA36023685A1C11
:1015900022601F706269431C934204D0A389DB0759
:1015A00007D50A2D05D12146304600F001F9002863
:1015B000E0D12846F8BD00BF2029000840290008D6
:1015C00060290008324B70B51D6806460C4625B1EF
:1015D000AB6913B9284600F055F92E4B9C4201D156
:1015E0006C6808E02C4B9C4201D1AC6803E02B4BAB
:1015F0009C4208BFEC68B4F90C309AB215071DD4B0
:10160000D00602D4092232603AE0510712D5616B4C
:1016100041B104F14403994202D0304600F026FA69
:1016200000236363A38923F02403A3810023636061
:1016300023692360A38943F00803A38123694BB97D
:10164000A38903F42073B3F5007F03D0214630460D
:1016500000F0C6F9A28912F0010305D00023A360AF
:1016600063695B42A36103E0920758BF6369A360AB
:1016700023695BB9B4F90C3003F0800080B230B15B
:1016800043F04003A3814FF0FF3070BD002070BDD8
:101690008C0000202029000840290008602900084B
:1016A0008A892DE9F041054610070C4659D44B684C
:1016B000002B02DC0B6C002B17DDE66AAEB102F4E6
:1016C0008052002392B22F682B600AB1606D15E042
:1016D000216A01232846B047411C0FD12B686BB10A
:1016E0001D2B01D0162B03D12F600020BDE8F08107
:1016F000A38943F04003A381BDE8F081A3895A0781
:1017000005D56368C01A636B0BB1236CC01A002344
:101710000246E66A216A2846B047431CA38906D1DF
:1017200029681D293AD8214ACA40D60736D5002251
:101730006260D9042269226004D5421C01D12B6861
:1017400003B96065616B2F600029CED004F14403BA
:10175000994202D0284600F089F900206063BDE874
:10176000F0810F69002FC0D093070E6808BF4B6946
:101770000F6018BF0023C7EB06088B6002E0074428
:10178000C0EB0808B8F1000FAFDD43463A46216AC6
:10179000A66A2846B0470028F1DCA38943F040033D
:1017A000A3814FF0FF30BDE8F08100BF0100402071
:1017B00038B50B6905460C46DBB118B183690BB926
:1017C00000F060F80C4B9C4201D16C6808E00B4BB8
:1017D0009C4201D1AC6803E0094B9C4208BFEC6815
:1017E000B4F90C302BB121462846BDE83840FFF74C
:1017F00057BF002038BD00BF20290008402900083D
:1018000060290008014900F0A9B800BFB11700081D
:10181000002310B504460360436083608181436602
:10182000C281036143618361194608225C30FFF77E
:1018300009FD054B6362054BA362054BE362054B53
:101840002462236310BD00BF6523000887230008BE
:10185000BF230008E323000870B568234D1E5D43D5
:101860000E4605F17401FFF7F5FC044640B1002176
:1018700080E842000C30A06005F16802FFF7E2FC4E
:10188000204670BD836910B5044633BB8364C364CE
:101890000365124B124A1B688262984204BF0123FF
:1018A000836100F01FF86060204600F01BF8A06024
:1018B000204600F017F80022E06004216068FFF77E
:1018C000A7FF01220921A068FFF7A2FF022212212F
:1018D000E068FFF79DFF0123A36110BD1C290008EC
:1018E00005180008F8B51C4B1E68B369074613B904
:1018F0003046FFF7C7FF4836B4687368013B04D42D
:10190000B4F90C507DB16834F8E733680BB1366830
:10191000F2E704213846FFF79FFF30600028F6D138
:101920000C233B60F8BD4FF6FF73E3810123A381D5
:1019300065662560A560656025616561A561082211
:10194000294604F15C00FFF77DFC6563A563A5648F
:10195000E5642046F8BD00BF1C2900082DE9F843C6
:101960008046894600F14804002694B1A56867685E
:10197000013F0CD4AB89012B07D9B5F90E300133E7
:1019800003D029464046C84706436835F0E7246837
:10199000EBE73046BDE8F88370B50E46B1F90E109E
:1019A000002990B014461D4606DA00232B60B38947
:1019B0001A060ED540230EE001AA00F027FD0028EC
:1019C000F3DB029A02F47042A2F500535A425A41E4
:1019D0002A604FF480630020236010B070BD0000C7
:1019E0008B8973B59E0705460C4610D401AB6A4639
:1019F000FFF7D2FF009906462846FFF72BFC68B98F
:101A0000B4F90C309A0522D443F00203A38104F107
:101A10004703236023610123636118E00D4BAB6230
:101A2000A389206043F08003A381009B6361019B35
:101A300020614BB1B4F90E10284600F0F9FC18B142
:101A4000A38943F00103A381A0893043A08102B0A0
:101A500070BD00BF05180008024B01461868FFF76B
:101A6000F9BB00BF8C0000207047704738B50546B1
:101A7000002946D051F8043C0C1F002BB8BFE418D5
:101A8000FFF7F2FF1F4A1368114613B96360146031
:101A900032E0A3420ED92268A018834204BF18681E
:101AA0005B68636004BF121822600C6024E0A242ED
:101AB00003D813465A68002AF9D118681918A142A8
:101AC0000BD12168014458188242196014D1106862
:101AD00052685A60014419600EE002D90C232B6051
:101AE0000AE021686018824204BF10685268626090
:101AF00004BF091821605C602846BDE83840FFF744
:101B0000B4BF38BDC80100202DE9F0478E689E4261
:101B100082460C46914698463ED88A8912F4906FC8
:101B20003AD0256809696F1A6569022305EB4505F6
:101B300095FBF3F57B1C43449D4238BF1D4653057E
:101B40000FD52946FFF786FB064698B13A4621692C
:101B500000F0E6FCA38923F4906343F08003A381A3
:101B600013E02A4600F002FD064670B9216950468E
:101B7000FFF77CFF0C23CAF80030A38943F0400331
:101B8000A3814FF0FF30BDE8F087266165613E44D8
:101B9000ED1B2660A5604646464528BF46463246B0
:101BA0004946206800F0C7FCA3689B1BA36023681C
:101BB0001E4426600020BDE8F08700002DE9F04FAC
:101BC0009DB0804603938B891C060D4616460DD5A5
:101BD0000B695BB94021FFF73DFB2860286118B90C
:101BE0000C23C8F80030CDE040236B61002309933B
:101BF00020238DF82930DFF89CB130238DF82A306E
:101C000037463C4614F8013B1BB9B7EB060910D028
:101C100003E0252BF9D02746F3E74B463246294609
:101C20004046FFF771FF013000F0A780099B4B444D
:101C300009933B78002B00F0A08000234FF0FF3287
:101C400004930793059206938DF853301A93012657
:101C5000052221784E4800F013FC671C049B38B124
:101C60004B4A801A06FA00F0184304903C46EFE70E
:101C7000D90644BF20228DF853201A0744BF2B22D7
:101C80008DF8532022782A2A03D0079A00210A20AF
:101C90000BE0039A111D12680391002A10DA5242D8
:101CA00043F00200079204900BE0274601343B7892
:101CB000303B092B03D800FB02320121F5E701B1CB
:101CC00007923B782E2B1ED17B782A2B0AD1039BBF
:101CD0001A1D1B680392002BB8BF4FF0FF33023769
:101CE000059310E000230593781C19460A24074643
:101CF00001303A78303A092A03D804FB0121012344
:101D0000F5E703B1059103223978224800F0B8FBCA
:101D100040B14023CBEB000003FA00F0049B1843D2
:101D20000490013739781C488DF8281006227E1C53
:101D300000F0A6FB88B1194B33B9039B073323F09E
:101D400007030833039314E003AB00932A46144BB4
:101D500004A94046AFF3008007E003AB00932A4696
:101D60000F4B04A9404600F0D7F9B0F1FF3F82467F
:101D700003D0099B5344099342E7AB895B0601D426
:101D8000099801E04FF0FF301DB0BDE8F08F00BFB3
:101D900080290008862900088A2900080000000020
:101DA000091B00089368013B002B10B4936008DA0C
:101DB0009469A34202DBCBB20A2B02D110BCFFF71D
:101DC000ADBB1368581C10601970C8B210BC7047C6
:101DD000F8B506460F461446D518AC4208D03A4628
:101DE00014F8011B3046FFF7DDFF431CF5D100E07E
:101DF0000020F8BD2DE9F04F9DB00C461746039327
:101E0000064618B183690BB9FFF73CFD7F4B9C4236
:101E100001D1746808E07E4B9C4201D1B46803E0B4
:101E20007C4B9C4208BFF468A38918070CD5236932
:101E300053B10023099320238DF8293030238DF8E6
:101E40002A30DFF8D4B144E021463046FFF7BAFB30
:101E50000028EED04FF0FF30D5E0039A111D126834
:101E60000391002A80F28C80524243F002000792D4
:101E7000049098F800302E2B00F08480032298F80C
:101E80000010654800F0FCFA48B14023CBEB00009D
:101E900003FA00F0049B1843049008F1010898F835
:101EA00000105E488DF82810062208F1010700F0A6
:101EB000E7FA002800F09580594B002B40F088800D
:101EC000039B073323F0070308330393099B534411
:101ED0000993B846454615F8013B1BB9B8EB07090D
:101EE0000FD003E0252BF9D0A846F3E74B463A463E
:101EF00021463046FFF76CFF01307FD0099B4B44F1
:101F0000099398F80030002B78D000234FF0FF326F
:101F100004930793059206938DF853301A93012783
:101F2000052229783F4800F0ABFA05F10108049B2F
:101F300038B13C4A801A07FA00F01843049045462D
:101F4000EEE7D90644BF20228DF853201A0744BF7C
:101F50002B228DF853202A782A2A3FF47EAF079A45
:101F600000210A20A846013598F80030303B092BA3
:101F700003D800FB02320121F4E700293FF479AFD6
:101F8000079276E798F801302A2B0BD1039B1A1D94
:101F90001B680392002BB8BF4FF0FF3308F1020813
:101FA00005936BE70023059308F1010019460A2504
:101FB0008046013098F80020303A092A03D805FB02
:101FC00001210123F4E7002B3FF458AF059155E7B9
:101FD00003AB00932246144B04A93046AFF30080B4
:101FE00007E003AB009322460F4B04A9304600F0F4
:101FF00093F8B0F1FF3F82467FF468AFA3895B0698
:102000003FF528AF09981DB0BDE8F08F20290008E2
:102010004029000860290008862900088A2900084C
:102020000000000080290008D11D00082DE9F047BC
:1020300091461F460A698B68DDF820809342B8BF3D
:102040001346C9F8003091F8432006460C4612B1F9
:102050000133C9F800302368990642BFD9F800302F
:102060000233C9F80030256815F0060510D104F1D7
:10207000190A07E00123524639463046C04701306D
:102080001AD00135E368D9F800209B1A9D42F1DB94
:1020900094F843302268003318BF012392060FD50D
:1020A000E1185A1C302081F84300224494F845106E
:1020B00082F84310023303E04FF0FF30BDE8F087B1
:1020C00004F1430239463046C0470130F4D022685B
:1020D000D9F80050E36802F00602042A08BF5D1B2D
:1020E0002269A3680CBF25EAE57500259342C4BFA9
:1020F0009B1AED184FF000091A344D4509D0012301
:10210000224639463046C0470130D5D009F1010991
:10211000F3E70020BDE8F0872DE9F04317460A7E7B
:1021200085B06E2A984606460C460C9B01F1430E7C
:1021300000F0AE8011D8632A22D009D8002A00F01E
:10214000BB80582A40F0CA8081F84520834955E079
:10215000642A1ED0692A1CD0C0E0732A00F0B08027
:1021600009D86F2A2ED0702A40F0B8800A6842F051
:1021700020020A603EE0752A24D0782A3AD0ADE0E9
:102180001A6801F14205111D1960136884F8423084
:10219000A8E021681A6811F0800F02D0111D1960A3
:1021A00008E011F0400F02F10401196002D0B2F909
:1021B000003000E01368002B3CDA2D225B4284F8EB
:1021C000432037E021681A6811F0800F02D0111DFA
:1021D000196007E011F0400F02F10401196001D00D
:1021E000138800E01368227E5C496F2A14BF0A221C
:1021F00008221BE078225A4984F845202268186892
:1022000012F0800F00F104051D6003D1550601D5C1
:10221000038800E00368D00744BF42F02002226038
:102220001BB9226822F0200222601022002084F8CC
:10223000430001E049490A226568A560002D08DBDA
:10224000206820F0040020602BB9002D7DD1754658
:102250000CE0002B79D07546B3FBF2F002FB103393
:10226000CB5C05F8013D03460028F5D1082A0BD1C7
:102270002368DA0708D5236962689A42DEBF3023F3
:1022800005F8013C05F1FF35C5EB0E0323612EE097
:1022900008681A68496910F0800F03D0101D186093
:1022A000136808E010F0400F02F104001860136892
:1022B00001D0198000E0196000232361754616E003
:1022C0001A68111D1960156862680021284600F01F
:1022D000D7F808B1401B6060636804E004F1420570
:1022E00084F8422001232361002384F84330CDF891
:1022F00000803B4603AA21463046FFF797FE013097
:1023000002D14FF0FF3026E023692A463946304695
:10231000C0470130F5D023689B0710D5002504F194
:10232000190907E001234A4639463046C0470130C3
:10233000E7D00135E368039A9B1A9D42F2DBE0681F
:10234000039B9842B8BF184605E00B7884F84230EA
:1023500004F142058AE705B0BDE8F0839129000841
:10236000A229000810B50C46B1F90E1000F024F9AE
:102370000028ABBF636DA3891B1823F48053ACBF47
:102380006365A38110BD2DE9F0411F468B89DB05F4
:1023900005460C46164605D502230022B1F90E105B
:1023A00000F056F8A389B4F90E1023F48053A381EA
:1023B00032463B462846BDE8F041FEF767B910B506
:1023C0000C46B1F90E1000F043F8431CA38915BF69
:1023D000606523F4805343F48053A38118BFA38125
:1023E00010BDB1F90E1000F001B8000038B5064C70
:1023F000002305460846236000F0FAF8431C02D18A
:10240000236803B12B6038BDD001002038B5074CDC
:102410000023054608461146236000F0F1F8431CEE
:1024200002D1236803B12B6038BD00BFD00100206A
:1024300038B5064C002305460846236000F0E8F84E
:10244000431C02D1236803B12B6038BDD0010020AA
:1024500038B5074C054608461146002222601A4648
:1024600000F0DEF8431C02D1236803B12B6038BDB5
:10247000D00100200000000000000000000000006B
:1024800001F0FF01102A2BDB10F0070F08D010F825
:10249000013B013A8B422DD010F0070F42B3F6D129
:1024A000F0B441EA012141EA014122F007047FF042
:1024B00000070023F0E80256083C85EA010586EA99
:1024C000010685FA47F5A3FA87F586FA47F6A5FAD5
:1024D00087F68EB9EED1F0BC01F0FF0102F00702E1
:1024E00032B110F8013B013A83EA010313B1F8D18C
:1024F0000020704701387047002D06BF354603386D
:10250000073815F0010F07D1013015F4807F02BFA5
:10251000013015F4C03F0130F0BC0138704700BFF6
:1025200010B5431E0A44914204D011F8014B03F840
:10253000014FF8E710BD884210B501EB020301D846
:10254000421E0BE09842FBD28118D21AD34204D02B
:1025500013F8014D01F8014DF8E710BD994204D080
:1025600011F8014B02F8014FF8E710BDF8B5074626
:1025700015460E4621B91146BDE8F840FEF76ABE81
:102580001AB9FFF773FA2846F8BD00F027F885421C
:102590000ED929463846FEF75DFE044650B1314655
:1025A0002A46FFF7BDFF31463846FFF75FFA01E0E4
:1025B0003046F8BD2046F8BD38B5074C05460846FC
:1025C0001146002222601A4600F032F8431C02D164
:1025D000236803B12B6038BDD001002051F8040CF2
:1025E0000028BEBF091851F8043CC01804387047D1
:1025F000024B58221A604FF0FF307047D001002084
:10260000024B58221A604FF0FF307047D001002073
:10261000024B58221A600020704700BFD0010020F2
:10262000024B58221A604FF0FF307047D001002053
:10263000024B58221A604FF0FF307047D001002043
:10264000044B1968024609B9034919601868024425
:102650001A607047CC010020D8010020FEE700007E
:10266000F8B500BFF8BC08BC9E467047F8B500BF7F
:10267000F8BC08BC9E46704725635B324A000000E8
:1026800025635B304B00000025635B25643B2564BC
:102690004800000025635B25646D000025635B2511
:1026A000643B25643B25646D000000002573000039
:1026B00025635B480000000025635B730000000099
:1026C00025635B750000000025635B256442000004
:1026D00025635B256444000025635B25644300009B
:1026E00025635B25644100002D2D2D3E0000000078
:1026F000256325632563000025635B25643B256412
:102700006D00000025635B6D00000000000000000C
:1027100000005F5F00000007000700147F147F14B3
:10272000242A7F2A12231308646236495522500056
:1027300005030000001C2241000041221C00140877
:102740003E081408083E0808005030000008080839
:102750000808006060000020100804023E5149454E
:102760003E00427F40004261514946224949493674
:102770001814127F102F494949313E494949320303
:10278000017109073649494936264949493E00360B
:1027900036000000563600000814224100141414BC
:1027A00014140041221408020151090632497941EA
:1027B0003E7C0A090A7C7F494949363E4141412213
:1027C0007F4141413E7F494949417F090909013E15
:1027D0004149497A7F0808087F00417F4100304025
:1027E00040403F7F081422417F404040407F020C20
:1027F000027F7F0204087F3E4141413E7F09090973
:10280000063E4151215E7F09090976264949493230
:1028100001017F01013F4040403F1F2040201F3FFA
:102820004038403F63140814630304780403615183
:102830004945437F41410000020408102000414106
:102840007F000402010204404040404000010204B5
:102850000020545454787F48444438384444442039
:10286000384444487F3854545418087E0901020CF7
:102870005252523E7F0804047800447D40002040BC
:10288000443D007F1028440000417F40007C041834
:1028900004787C0804047838444444387C141414C4
:1028A00008081414187C7C08040408485454542064
:1028B000043F4440203C4040207C1C2040201C3CE5
:1028C0004038403C44281028440C5050503C44644C
:1028D000544C44000836410000007F00000041369F
:1028E000080008040810080055700000446F776E57
:1028F000000000004C6566740000000052696768C3
:102900007400000043656E7465720000256C642CD1
:102910002530346C64000000430000002C000020CF
:1029200000000000000000000000000000000000A7
:102930000000000000000000000000000000000097
:102940000000000000000000000000000000000087
:102950000000000000000000000000000000000077
:102960000000000000000000000000000000000067
:102970000000000000000000000000000000000057
:10298000232D302B2000686C4C0065666745464758
:1029900000303132333435363738394142434445DB
:1029A000460030313233343536373839616263644A
:0829B000656600000000000054
:0829B8002CD8FF7F0100000094
:1029C0000000010002000400060008000A000C00DC
:1029D0001000200040008000000100000000000006
:1029E00001020304010203040607080900000000B5
:1029F0002029000840290008602900080000000084
:102A0000000000000000000000000000182900087D
:102A100000000000000000000000000000000000B6
:102A200000000000000000000000000000000000A6
:102A30000000000000000000000000000000000096
:102A40000000000000000000000000002C0000203A
:082A5000AD0100088901000836
:0400000508000000EF
:00000001FF
